{
  "_format": "hh3-artifact-1",
  "contractName": "NFTAuction",
  "sourceName": "contracts/NFTAuction.sol",
  "abi": [
    {
      "inputs": [
        {
          "internalType": "address",
          "name": "target",
          "type": "address"
        }
      ],
      "name": "AddressEmptyCode",
      "type": "error"
    },
    {
      "inputs": [
        {
          "internalType": "address",
          "name": "implementation",
          "type": "address"
        }
      ],
      "name": "ERC1967InvalidImplementation",
      "type": "error"
    },
    {
      "inputs": [],
      "name": "ERC1967NonPayable",
      "type": "error"
    },
    {
      "inputs": [],
      "name": "FailedCall",
      "type": "error"
    },
    {
      "inputs": [],
      "name": "InvalidInitialization",
      "type": "error"
    },
    {
      "inputs": [],
      "name": "NotInitializing",
      "type": "error"
    },
    {
      "inputs": [
        {
          "internalType": "address",
          "name": "owner",
          "type": "address"
        }
      ],
      "name": "OwnableInvalidOwner",
      "type": "error"
    },
    {
      "inputs": [
        {
          "internalType": "address",
          "name": "account",
          "type": "address"
        }
      ],
      "name": "OwnableUnauthorizedAccount",
      "type": "error"
    },
    {
      "inputs": [],
      "name": "ReentrancyGuardReentrantCall",
      "type": "error"
    },
    {
      "inputs": [],
      "name": "UUPSUnauthorizedCallContext",
      "type": "error"
    },
    {
      "inputs": [
        {
          "internalType": "bytes32",
          "name": "slot",
          "type": "bytes32"
        }
      ],
      "name": "UUPSUnsupportedProxiableUUID",
      "type": "error"
    },
    {
      "anonymous": false,
      "inputs": [
        {
          "indexed": true,
          "internalType": "address",
          "name": "highestBidder",
          "type": "address"
        },
        {
          "indexed": true,
          "internalType": "uint256",
          "name": "auctionId",
          "type": "uint256"
        },
        {
          "indexed": true,
          "internalType": "address",
          "name": "nftContract",
          "type": "address"
        },
        {
          "indexed": false,
          "internalType": "uint256",
          "name": "tokenId",
          "type": "uint256"
        },
        {
          "indexed": false,
          "internalType": "uint256",
          "name": "highestBid",
          "type": "uint256"
        }
      ],
      "name": "AuctionBided",
      "type": "event"
    },
    {
      "anonymous": false,
      "inputs": [
        {
          "indexed": true,
          "internalType": "address",
          "name": "seller",
          "type": "address"
        },
        {
          "indexed": true,
          "internalType": "uint256",
          "name": "auctionId",
          "type": "uint256"
        },
        {
          "indexed": true,
          "internalType": "address",
          "name": "nftContract",
          "type": "address"
        },
        {
          "indexed": false,
          "internalType": "uint256",
          "name": "duration",
          "type": "uint256"
        },
        {
          "indexed": false,
          "internalType": "uint256",
          "name": "startTime",
          "type": "uint256"
        },
        {
          "indexed": false,
          "internalType": "uint256",
          "name": "startPrice",
          "type": "uint256"
        },
        {
          "indexed": false,
          "internalType": "uint256",
          "name": "tokenId",
          "type": "uint256"
        }
      ],
      "name": "AuctionCreated",
      "type": "event"
    },
    {
      "anonymous": false,
      "inputs": [
        {
          "indexed": true,
          "internalType": "address",
          "name": "highestBidder",
          "type": "address"
        },
        {
          "indexed": true,
          "internalType": "uint256",
          "name": "auctionId",
          "type": "uint256"
        },
        {
          "indexed": true,
          "internalType": "address",
          "name": "nftContract",
          "type": "address"
        },
        {
          "indexed": false,
          "internalType": "uint256",
          "name": "tokenId",
          "type": "uint256"
        },
        {
          "indexed": false,
          "internalType": "uint256",
          "name": "highestBid",
          "type": "uint256"
        }
      ],
      "name": "AuctionEnded",
      "type": "event"
    },
    {
      "anonymous": false,
      "inputs": [
        {
          "indexed": false,
          "internalType": "uint64",
          "name": "version",
          "type": "uint64"
        }
      ],
      "name": "Initialized",
      "type": "event"
    },
    {
      "anonymous": false,
      "inputs": [
        {
          "indexed": true,
          "internalType": "address",
          "name": "previousOwner",
          "type": "address"
        },
        {
          "indexed": true,
          "internalType": "address",
          "name": "newOwner",
          "type": "address"
        }
      ],
      "name": "OwnershipTransferred",
      "type": "event"
    },
    {
      "anonymous": false,
      "inputs": [
        {
          "indexed": true,
          "internalType": "address",
          "name": "implementation",
          "type": "address"
        }
      ],
      "name": "Upgraded",
      "type": "event"
    },
    {
      "inputs": [],
      "name": "UPGRADE_INTERFACE_VERSION",
      "outputs": [
        {
          "internalType": "string",
          "name": "",
          "type": "string"
        }
      ],
      "stateMutability": "view",
      "type": "function"
    },
    {
      "inputs": [],
      "name": "admin",
      "outputs": [
        {
          "internalType": "address",
          "name": "",
          "type": "address"
        }
      ],
      "stateMutability": "view",
      "type": "function"
    },
    {
      "inputs": [
        {
          "internalType": "uint256",
          "name": "amount",
          "type": "uint256"
        }
      ],
      "name": "calculateFee",
      "outputs": [
        {
          "internalType": "uint256",
          "name": "fee",
          "type": "uint256"
        }
      ],
      "stateMutability": "view",
      "type": "function"
    },
    {
      "inputs": [
        {
          "internalType": "uint256",
          "name": "duration_",
          "type": "uint256"
        },
        {
          "internalType": "uint256",
          "name": "startPrice_",
          "type": "uint256"
        },
        {
          "internalType": "address",
          "name": "nftcontract_",
          "type": "address"
        },
        {
          "internalType": "uint256",
          "name": "tokenId_",
          "type": "uint256"
        },
        {
          "internalType": "address",
          "name": "payToken_",
          "type": "address"
        }
      ],
      "name": "createAuction",
      "outputs": [],
      "stateMutability": "nonpayable",
      "type": "function"
    },
    {
      "inputs": [
        {
          "internalType": "uint256",
          "name": "auctionId",
          "type": "uint256"
        },
        {
          "internalType": "address",
          "name": "nftContract",
          "type": "address"
        }
      ],
      "name": "endBid",
      "outputs": [],
      "stateMutability": "nonpayable",
      "type": "function"
    },
    {
      "inputs": [
        {
          "internalType": "address",
          "name": "platformFeeRecipient_",
          "type": "address"
        },
        {
          "internalType": "uint256",
          "name": "platformFeePercentage_",
          "type": "uint256"
        }
      ],
      "name": "initialize",
      "outputs": [],
      "stateMutability": "nonpayable",
      "type": "function"
    },
    {
      "inputs": [
        {
          "internalType": "address",
          "name": "",
          "type": "address"
        },
        {
          "internalType": "address",
          "name": "",
          "type": "address"
        },
        {
          "internalType": "uint256",
          "name": "",
          "type": "uint256"
        },
        {
          "internalType": "bytes",
          "name": "",
          "type": "bytes"
        }
      ],
      "name": "onERC721Received",
      "outputs": [
        {
          "internalType": "bytes4",
          "name": "",
          "type": "bytes4"
        }
      ],
      "stateMutability": "pure",
      "type": "function"
    },
    {
      "inputs": [],
      "name": "owner",
      "outputs": [
        {
          "internalType": "address",
          "name": "",
          "type": "address"
        }
      ],
      "stateMutability": "view",
      "type": "function"
    },
    {
      "inputs": [
        {
          "internalType": "uint256",
          "name": "price",
          "type": "uint256"
        },
        {
          "internalType": "uint256",
          "name": "auctionId",
          "type": "uint256"
        },
        {
          "internalType": "address",
          "name": "payToken",
          "type": "address"
        }
      ],
      "name": "placeBid",
      "outputs": [],
      "stateMutability": "payable",
      "type": "function"
    },
    {
      "inputs": [],
      "name": "platformFeePercentage",
      "outputs": [
        {
          "internalType": "uint256",
          "name": "",
          "type": "uint256"
        }
      ],
      "stateMutability": "view",
      "type": "function"
    },
    {
      "inputs": [],
      "name": "platformFeeRecipient",
      "outputs": [
        {
          "internalType": "address",
          "name": "",
          "type": "address"
        }
      ],
      "stateMutability": "view",
      "type": "function"
    },
    {
      "inputs": [],
      "name": "proxiableUUID",
      "outputs": [
        {
          "internalType": "bytes32",
          "name": "",
          "type": "bytes32"
        }
      ],
      "stateMutability": "view",
      "type": "function"
    },
    {
      "inputs": [],
      "name": "renounceOwnership",
      "outputs": [],
      "stateMutability": "nonpayable",
      "type": "function"
    },
    {
      "inputs": [
        {
          "internalType": "address",
          "name": "newOwner",
          "type": "address"
        }
      ],
      "name": "transferOwnership",
      "outputs": [],
      "stateMutability": "nonpayable",
      "type": "function"
    },
    {
      "inputs": [
        {
          "internalType": "address",
          "name": "newImplementation",
          "type": "address"
        },
        {
          "internalType": "bytes",
          "name": "data",
          "type": "bytes"
        }
      ],
      "name": "upgradeToAndCall",
      "outputs": [],
      "stateMutability": "payable",
      "type": "function"
    }
  ],
  "bytecode": "0x60a0604052306080523480156012575f5ffd5b506080516124876100395f395f81816113310152818161135a015261149e01526124875ff3fe6080604052600436106100e4575f3560e01c8063ad6561ec11610087578063eb13554f11610057578063eb13554f1461028e578063f052639f146102ad578063f2fde38b146102cc578063f851a440146102eb575f5ffd5b8063ad6561ec14610228578063c217d4d61461023b578063cd6dc6871461025a578063cdd78cfc14610279575f5ffd5b8063715018a6116100c2578063715018a6146101685780638da5cb5b1461017c57806399a5d747146101cc578063ad3cb1cc146101eb575f5ffd5b8063150b7a02146100e85780634f1ef2861461013157806352d1902d14610146575b5f5ffd5b3480156100f3575f5ffd5b50610113610102366004611ead565b630a85bd0160e11b95945050505050565b6040516001600160e01b031990911681526020015b60405180910390f35b61014461013f366004611f5a565b61030a565b005b348015610151575f5ffd5b5061015a610329565b604051908152602001610128565b348015610173575f5ffd5b50610144610344565b348015610187575f5ffd5b507f9016d09d72d40fdae2fd8ceac6b6234c7706214fd39c1cd1e609a0528c199300546001600160a01b03165b6040516001600160a01b039091168152602001610128565b3480156101d7575f5ffd5b5061015a6101e6366004612020565b610357565b3480156101f6575f5ffd5b5061021b604051806040016040528060058152602001640352e302e360dc1b81525081565b6040516101289190612065565b610144610236366004612077565b610379565b348015610246575f5ffd5b506101446102553660046120ad565b610992565b348015610265575f5ffd5b506101446102743660046120ff565b610e4b565b348015610284575f5ffd5b5061015a60025481565b348015610299575f5ffd5b506001546101b4906001600160a01b031681565b3480156102b8575f5ffd5b506101446102c7366004612129565b61102e565b3480156102d7575f5ffd5b506101446102e6366004612157565b6112e9565b3480156102f6575f5ffd5b506004546101b4906001600160a01b031681565b610312611326565b61031b826113ca565b61032582826113d2565b5050565b5f610332611493565b505f5160206124325f395f51905f5290565b61034c6114dc565b6103555f611537565b565b5f612710826002546103699190612186565b610373919061219d565b92915050565b5f83116103be5760405162461bcd60e51b815260206004820152600e60248201526d07072696365206e656564203e20360941b60448201526064015b60405180910390fd5b5f8281526020819052604090206006810154815460058301546001600160a01b0391821691161561043d578186116104385760405162461bcd60e51b815260206004820152601f60248201527f63757272656e74207072696365206e656564203e20686967686573744269640060448201526064016103b5565b610490565b826004015486116104905760405162461bcd60e51b815260206004820152601f60248201527f63757272656e74207072696365206e656564203e20737461727450726963650060448201526064016103b5565b336001600160a01b038216036104dc5760405162461bcd60e51b815260206004820152601160248201527014d95b1b195c8818d85b9b9bdd08189a59607a1b60448201526064016103b5565b600383015460ff1615801561050357508260020154836001015461050091906121bc565b42105b61053f5760405162461bcd60e51b815260206004820152600d60248201526c185d58dd1a5bdb88195b991959609a1b60448201526064016103b5565b6001600160a01b0384166105a15785341461059c5760405162461bcd60e51b815260206004820152601e60248201527f45544820626964206e6565642056616c756520657175616c207072696365000060448201526064016103b5565b6106a4565b34156105e85760405162461bcd60e51b815260206004820152601660248201527508aa486646040c4d2c840dcdee840e6cadcc8408aa8960531b60448201526064016103b5565b604051636eb1769f60e11b815233600482015230602482015286906001600160a01b0386169063dd62ed3e90604401602060405180830381865afa158015610632573d5f5f3e3d5ffd5b505050506040513d601f19601f8201168201806040525081019061065691906121cf565b10156106a45760405162461bcd60e51b815260206004820152601a60248201527f455243323020616c6c6f77616e6365206e6f7420656e6f75676800000000000060448201526064016103b5565b5f6106af85886115a7565b90506106db604051806040016040528060088152602001671c1c9a58d95554d160c21b8152508261177a565b604080516101608101825285546001600160a01b03908116825260018701546020830152600287015492820192909252600386015460ff1615156060820152600486015460808201526005860154821660a0820152600686015460c08201526007860154821660e082015260088601546101008201526009860154909116610120820152600a8501546101408201525f90610775906117bf565b90506107a36040518060400160405280600a8152602001691a1a59da195cdd1554d160b21b8152508261177a565b8082116107f25760405162461bcd60e51b815260206004820152601d60248201527f62696420616d6d6f756e74206e656564203e206869676865737455534400000060448201526064016103b5565b6001600160a01b038616156108ba576040516323b872dd60e01b81525f906001600160a01b038816906323b872dd9061083390339030908e906004016121e6565b6020604051808303815f875af115801561084f573d5f5f3e3d5ffd5b505050506040513d601f19601f82011682018060405250810190610873919061220a565b9050806108b85760405162461bcd60e51b8152602060048201526013602482015272115490cc8c081d1c985b9cd9995c8811985a5b606a1b60448201526064016103b5565b505b60058501546001600160a01b0316158015906108d957505f8560060154115b156108fc57600585015460068601546108fc916001600160a01b031690886119c0565b6005850180546001600160a01b031990811633908117909255600687018a90556009870180546001600160a01b038a8116919093161790556007870154600888015460405191909216928a9290917f59b2ba50a0d7012fad8fc98aa4a6ca779146c4f0c5a899127a96dde42147826191610980918e90918252602082015260400190565b60405180910390a45050505050505050565b603c85101580156109a557506102588511155b6109f15760405162461bcd60e51b815260206004820152601d60248201527f416374696f6e54696d65206e65656420696e2031202d203130206d696e00000060448201526064016103b5565b5f8411610a365760405162461bcd60e51b8152602060048201526013602482015272073746172745072696365206e656564203e203606c1b60448201526064016103b5565b6001600160a01b038316610a855760405162461bcd60e51b815260206004820152601660248201527506e6674636f6e747261637420646f6e277420307830360541b60448201526064016103b5565b5f8211610ac85760405162461bcd60e51b81526020600482015260116024820152700746f6b656e206964206e656564203e203607c1b60448201526064016103b5565b6040516331a9108f60e11b815260048101839052839033906001600160a01b03831690636352211e90602401602060405180830381865afa158015610b0f573d5f5f3e3d5ffd5b505050506040513d601f19601f82011682018060405250810190610b339190612229565b6001600160a01b031614610b895760405162461bcd60e51b815260206004820152601760248201527f73656c6c6572206e6f74206265204e4654206f776e657200000000000000000060448201526064016103b5565b6001600160a01b03821615610bf8576001600160a01b038083165f908152600560205260409020541680610bf65760405162461bcd60e51b81526020600482015260146024820152731c185e551bdad95b881b9bdd081cdd5c1c1bdc9d60621b60448201526064016103b5565b505b5f6003549050604051806101600160405280336001600160a01b031681526020014281526020018881526020015f151581526020018781526020015f6001600160a01b031681526020015f8152602001866001600160a01b03168152602001858152602001846001600160a01b03168152602001828152505f5f8381526020019081526020015f205f820151815f015f6101000a8154816001600160a01b0302191690836001600160a01b0316021790555060208201518160010155604082015181600201556060820151816003015f6101000a81548160ff0219169083151502179055506080820151816004015560a0820151816005015f6101000a8154816001600160a01b0302191690836001600160a01b0316021790555060c0820151816006015560e0820151816007015f6101000a8154816001600160a01b0302191690836001600160a01b031602179055506101008201518160080155610120820151816009015f6101000a8154816001600160a01b0302191690836001600160a01b0316021790555061014082015181600a0155905050816001600160a01b03166323b872dd8630876040518463ffffffff1660e01b8152600401610dbf939291906121e6565b5f604051808303815f87803b158015610dd6575f5ffd5b505af1158015610de8573d5f5f3e3d5ffd5b5050604080518a8152426020820152908101899052606081018790526001600160a01b038816925083915033907faad3ca328e4b762aed949db2ae4cf74d5fa0e3bc7148b580c233a0f4ea267e5c9060800160405180910390a450505050505050565b5f610e54611b97565b805490915060ff600160401b820416159067ffffffffffffffff165f81158015610e7b5750825b90505f8267ffffffffffffffff166001148015610e975750303b155b905081158015610ea5575080155b15610ec35760405163f92ee8a960e01b815260040160405180910390fd5b845467ffffffffffffffff191660011785558315610eed57845460ff60401b1916600160401b1785555b610ef633611bbf565b610efe611bd0565b610f06611bd8565b600480546001600160a01b03191633179055610fbf60056020527f05b8ccbb9d4d8fb16ea74ce3c29a41f1b461fbdaff4714a0d9a8eb05499746bc80546001600160a01b031990811673694aa1769357215de4fac081bf1f309adc32530617909155731c7d4b196cb0c7b01d743fbc6116a902379c72385f527fe0d9ab1f19464863990ce4846570a7ab4d4f84fc29176c775eb0021ad02f59f2805490911673a2f78ab2355fe2f984d808b5cee7fd0a93d5270e179055565b600180546001600160a01b0319166001600160a01b0389161790556002869055831561102557845460ff60401b19168555604051600181527fc7f505b2f371ae2175ee4913f4499e1f2633a7b5936321eed1cdaeb6115181d29060200160405180910390a15b50505050505050565b5f828152602081905260409020600381015460ff16156110845760405162461bcd60e51b8152602060048201526011602482015270185d58dd1a5bdb881a185908195b991959607a1b60448201526064016103b5565b8060020154816001015461109891906121bc565b4210156110db5760405162461bcd60e51b8152602060048201526011602482015270185d58dd1a5bdb881b9bdd08195b991959607a1b60448201526064016103b5565b60038101805460ff19166001179055600581015482906001600160a01b0316156112235760058201546008830154604051632142170760e11b81526001600160a01b03848116936342842e0e9361113a933093909216916004016121e6565b5f604051808303815f87803b158015611151575f5ffd5b505af1158015611163573d5f5f3e3d5ffd5b505050505f6111758360060154610357565b905061119c6040518060400160405280600381526020016266656560e81b8152508261177a565b5f8184600601546111ad9190612244565b90506111dd6040518060400160405280600c81526020016b1cd95b1b195c905b5bdd5b9d60a21b8152508261177a565b60015460098501546111fd916001600160a01b03908116918591166119c0565b8354600985015461121c916001600160a01b03908116918491166119c0565b5050611289565b81546008830154604051632142170760e11b81526001600160a01b03848116936342842e0e9361125b933093909216916004016121e6565b5f604051808303815f87803b158015611272575f5ffd5b505af1158015611284573d5f5f3e3d5ffd5b505050505b6005820154600883015460068401546040805192835260208301919091526001600160a01b038681169388939116917fc29d0f532bebf12c1aac6586caa23cfa427c9e8d072a5c92847d86597192e33a910160405180910390a450505050565b6112f16114dc565b6001600160a01b03811661131a57604051631e4fbdf760e01b81525f60048201526024016103b5565b61132381611537565b50565b306001600160a01b037f00000000000000000000000000000000000000000000000000000000000000001614806113ac57507f00000000000000000000000000000000000000000000000000000000000000006001600160a01b03166113a05f5160206124325f395f51905f52546001600160a01b031690565b6001600160a01b031614155b156103555760405163703e46dd60e11b815260040160405180910390fd5b6113236114dc565b816001600160a01b03166352d1902d6040518163ffffffff1660e01b8152600401602060405180830381865afa92505050801561142c575060408051601f3d908101601f19168201909252611429918101906121cf565b60015b61145457604051634c9c8ce360e01b81526001600160a01b03831660048201526024016103b5565b5f5160206124325f395f51905f52811461148457604051632a87526960e21b8152600481018290526024016103b5565b61148e8383611be8565b505050565b306001600160a01b037f000000000000000000000000000000000000000000000000000000000000000016146103555760405163703e46dd60e11b815260040160405180910390fd5b3361150e7f9016d09d72d40fdae2fd8ceac6b6234c7706214fd39c1cd1e609a0528c199300546001600160a01b031690565b6001600160a01b0316146103555760405163118cdaa760e01b81523360048201526024016103b5565b7f9016d09d72d40fdae2fd8ceac6b6234c7706214fd39c1cd1e609a0528c19930080546001600160a01b031981166001600160a01b03848116918217845560405192169182907f8be0079c531659141344cd1fd0a4f28419497f9722a3daafe3b4186f6b6457e0905f90a3505050565b6001600160a01b038083165f90815260056020526040812054909116806116105760405162461bcd60e51b815260206004820152601f60248201527f50726963652066656564206e6f742073657420666f7220706179546f6b656e0060448201526064016103b5565b5f816001600160a01b031663feaf968c6040518163ffffffff1660e01b815260040160a060405180830381865afa15801561164d573d5f5f3e3d5ffd5b505050506040513d601f19601f820116820180604052508101906116719190612275565b5050509150505f81136116c05760405162461bcd60e51b8152602060048201526017602482015276125b9d985b1a59081c1c9a58d948199c9bdb4819995959604a1b60448201526064016103b5565b5f8190505f836001600160a01b031663313ce5676040518163ffffffff1660e01b8152600401602060405180830381865afa158015611701573d5f5f3e3d5ffd5b505050506040513d601f19601f8201168201806040525081019061172591906122c3565b60ff1690506001600160a01b0387165f0361176f5761174581600c6121bc565b61175090600a6123c6565b61175a8784612186565b611764919061219d565b945050505050610373565b61175081600a6123c6565b61032582826040516024016117909291906123d1565b60408051601f198184030181529190526020810180516001600160e01b0316632d839cb360e21b179052611c3d565b6101208101516001600160a01b039081165f908152600560205260408120549091168061182e5760405162461bcd60e51b815260206004820152601f60248201527f50726963652066656564206e6f742073657420666f7220706179546f6b656e0060448201526064016103b5565b5f816001600160a01b031663feaf968c6040518163ffffffff1660e01b815260040160a060405180830381865afa15801561186b573d5f5f3e3d5ffd5b505050506040513d601f19601f8201168201806040525081019061188f9190612275565b5050509150505f81136118de5760405162461bcd60e51b8152602060048201526017602482015276125b9d985b1a59081c1c9a58d948199c9bdb4819995959604a1b60448201526064016103b5565b5f8190505f836001600160a01b031663313ce5676040518163ffffffff1660e01b8152600401602060405180830381865afa15801561191f573d5f5f3e3d5ffd5b505050506040513d601f19601f8201168201806040525081019061194391906122c3565b608087015160a088015160ff929092169250906001600160a01b03161561196b575060c08601515b6101208701516001600160a01b03165f036119b55761198b82600c6121bc565b61199690600a6123c6565b6119a08285612186565b6119aa919061219d565b979650505050505050565b61199682600a6123c6565b6001600160a01b038316611a165760405162461bcd60e51b815260206004820152601860248201527f72656365697665206163636f756e74206e656564203e2030000000000000000060448201526064016103b5565b5f8211611a575760405162461bcd60e51b815260206004820152600f60248201526e0616d6f756e74206e656564203e203608c1b60448201526064016103b5565b6001600160a01b03811615611b245760405163a9059cbb60e01b81526001600160a01b038481166004830152602482018490525f919083169063a9059cbb906044016020604051808303815f875af1158015611ab5573d5f5f3e3d5ffd5b505050506040513d601f19601f82011682018060405250810190611ad9919061220a565b905080611b1e5760405162461bcd60e51b8152602060048201526013602482015272115490cc8c081d1c985b9cd9995c8811985a5b606a1b60448201526064016103b5565b50505050565b6040516001600160a01b0384169083156108fc029084905f818181858888f19350505050158015611b57573d5f5f3e3d5ffd5b5061148e6040518060400160405280601781526020017f7472616e736665722065746820746f206269646465723a00000000000000000081525084611c46565b5f807ff0c57e16840df040f15088dc2f81fe391c3923bec73e23a9662efc9c229c6a00610373565b611bc7611c8b565b61132381611cb0565b610355611c8b565b611be0611c8b565b610355611cb8565b611bf182611ce6565b6040516001600160a01b038316907fbc7cd75a20ee27fd9adebab32041f755214dbc6bffa90cc0225b39da2e5c2d3b905f90a2805115611c355761148e8282611d49565b610325611dbb565b61132381611dda565b6103258282604051602401611c5c9291906123f2565b60408051601f198184030181529190526020810180516001600160e01b031663319af33360e01b179052611c3d565b611c93611df9565b61035557604051631afcd79f60e31b815260040160405180910390fd5b6112f1611c8b565b611cc0611c8b565b60017f9b779b17422d0df92223018b32b4d1fa46e071723d6817e2486d003becc55f0055565b806001600160a01b03163b5f03611d1b57604051634c9c8ce360e01b81526001600160a01b03821660048201526024016103b5565b5f5160206124325f395f51905f5280546001600160a01b0319166001600160a01b0392909216919091179055565b60605f5f846001600160a01b031684604051611d65919061241b565b5f60405180830381855af49150503d805f8114611d9d576040519150601f19603f3d011682016040523d82523d5f602084013e611da2565b606091505b5091509150611db2858383611e12565b95945050505050565b34156103555760405163b398979f60e01b815260040160405180910390fd5b5f6a636f6e736f6c652e6c6f6790505f5f835160208501845afa505050565b5f611e02611b97565b54600160401b900460ff16919050565b606082611e2757611e2282611e71565b611e6a565b8151158015611e3e57506001600160a01b0384163b155b15611e6757604051639996b31560e01b81526001600160a01b03851660048201526024016103b5565b50805b9392505050565b805115611e8057805160208201fd5b60405163d6bda27560e01b815260040160405180910390fd5b6001600160a01b0381168114611323575f5ffd5b5f5f5f5f5f60808688031215611ec1575f5ffd5b8535611ecc81611e99565b94506020860135611edc81611e99565b935060408601359250606086013567ffffffffffffffff811115611efe575f5ffd5b8601601f81018813611f0e575f5ffd5b803567ffffffffffffffff811115611f24575f5ffd5b886020828401011115611f35575f5ffd5b959894975092955050506020019190565b634e487b7160e01b5f52604160045260245ffd5b5f5f60408385031215611f6b575f5ffd5b8235611f7681611e99565b9150602083013567ffffffffffffffff811115611f91575f5ffd5b8301601f81018513611fa1575f5ffd5b803567ffffffffffffffff811115611fbb57611fbb611f46565b604051601f8201601f19908116603f0116810167ffffffffffffffff81118282101715611fea57611fea611f46565b604052818152828201602001871015612001575f5ffd5b816020840160208301375f602083830101528093505050509250929050565b5f60208284031215612030575f5ffd5b5035919050565b5f81518084528060208401602086015e5f602082860101526020601f19601f83011685010191505092915050565b602081525f611e6a6020830184612037565b5f5f5f60608486031215612089575f5ffd5b833592506020840135915060408401356120a281611e99565b809150509250925092565b5f5f5f5f5f60a086880312156120c1575f5ffd5b853594506020860135935060408601356120da81611e99565b92506060860135915060808601356120f181611e99565b809150509295509295909350565b5f5f60408385031215612110575f5ffd5b823561211b81611e99565b946020939093013593505050565b5f5f6040838503121561213a575f5ffd5b82359150602083013561214c81611e99565b809150509250929050565b5f60208284031215612167575f5ffd5b8135611e6a81611e99565b634e487b7160e01b5f52601160045260245ffd5b808202811582820484141761037357610373612172565b5f826121b757634e487b7160e01b5f52601260045260245ffd5b500490565b8082018082111561037357610373612172565b5f602082840312156121df575f5ffd5b5051919050565b6001600160a01b039384168152919092166020820152604081019190915260600190565b5f6020828403121561221a575f5ffd5b81518015158114611e6a575f5ffd5b5f60208284031215612239575f5ffd5b8151611e6a81611e99565b8181038181111561037357610373612172565b805169ffffffffffffffffffff81168114612270575f5ffd5b919050565b5f5f5f5f5f60a08688031215612289575f5ffd5b61229286612257565b602087015160408801516060890151929750909550935091506122b760808701612257565b90509295509295909350565b5f602082840312156122d3575f5ffd5b815160ff81168114611e6a575f5ffd5b6001815b600184111561231e5780850481111561230257612302612172565b600184161561231057908102905b60019390931c9280026122e7565b935093915050565b5f8261233457506001610373565b8161234057505f610373565b816001811461235657600281146123605761237c565b6001915050610373565b60ff84111561237157612371612172565b50506001821b610373565b5060208310610133831016604e8410600b841016171561239f575081810a610373565b6123ab5f1984846122e3565b805f19048211156123be576123be612172565b029392505050565b5f611e6a8383612326565b604081525f6123e36040830185612037565b90508260208301529392505050565b604081525f6124046040830185612037565b905060018060a01b03831660208301529392505050565b5f82518060208501845e5f92019182525091905056fe360894a13ba1a3210667c828492db98dca3e2076cc3735a920a3ca505d382bbca264697066735822122042fa1b2940e861e0cc4ceb140dcc844a7733cf14a782aeba1f76273b592f0a9964736f6c634300081c0033",
  "linkReferences": {},
  "deployedLinkReferences": {},
  "immutableReferences": {
    "528": [
      {
        "length": 32,
        "start": 4913
      },
      {
        "length": 32,
        "start": 4954
      },
      {
        "length": 32,
        "start": 5278
      }
    ]
  },
  "inputSourceName": "project/contracts/NFTAuction.sol",
  "buildInfoId": "solc-0_8_28-f232a538711978951f39893f969cf0c696d133e8"
}