{
  "_format": "hh3-artifact-1",
  "contractName": "NFTContract",
  "sourceName": "contracts/NFTContract.sol",
  "abi": [
    {
      "inputs": [
        {
          "internalType": "string",
          "name": "name_",
          "type": "string"
        },
        {
          "internalType": "string",
          "name": "symbol_",
          "type": "string"
        },
        {
          "internalType": "string",
          "name": "baseURI_",
          "type": "string"
        }
      ],
      "stateMutability": "nonpayable",
      "type": "constructor"
    },
    {
      "inputs": [
        {
          "internalType": "address",
          "name": "sender",
          "type": "address"
        },
        {
          "internalType": "uint256",
          "name": "tokenId",
          "type": "uint256"
        },
        {
          "internalType": "address",
          "name": "owner",
          "type": "address"
        }
      ],
      "name": "ERC721IncorrectOwner",
      "type": "error"
    },
    {
      "inputs": [
        {
          "internalType": "address",
          "name": "operator",
          "type": "address"
        },
        {
          "internalType": "uint256",
          "name": "tokenId",
          "type": "uint256"
        }
      ],
      "name": "ERC721InsufficientApproval",
      "type": "error"
    },
    {
      "inputs": [
        {
          "internalType": "address",
          "name": "approver",
          "type": "address"
        }
      ],
      "name": "ERC721InvalidApprover",
      "type": "error"
    },
    {
      "inputs": [
        {
          "internalType": "address",
          "name": "operator",
          "type": "address"
        }
      ],
      "name": "ERC721InvalidOperator",
      "type": "error"
    },
    {
      "inputs": [
        {
          "internalType": "address",
          "name": "owner",
          "type": "address"
        }
      ],
      "name": "ERC721InvalidOwner",
      "type": "error"
    },
    {
      "inputs": [
        {
          "internalType": "address",
          "name": "receiver",
          "type": "address"
        }
      ],
      "name": "ERC721InvalidReceiver",
      "type": "error"
    },
    {
      "inputs": [
        {
          "internalType": "address",
          "name": "sender",
          "type": "address"
        }
      ],
      "name": "ERC721InvalidSender",
      "type": "error"
    },
    {
      "inputs": [
        {
          "internalType": "uint256",
          "name": "tokenId",
          "type": "uint256"
        }
      ],
      "name": "ERC721NonexistentToken",
      "type": "error"
    },
    {
      "inputs": [
        {
          "internalType": "address",
          "name": "owner",
          "type": "address"
        }
      ],
      "name": "OwnableInvalidOwner",
      "type": "error"
    },
    {
      "inputs": [
        {
          "internalType": "address",
          "name": "account",
          "type": "address"
        }
      ],
      "name": "OwnableUnauthorizedAccount",
      "type": "error"
    },
    {
      "anonymous": false,
      "inputs": [
        {
          "indexed": true,
          "internalType": "address",
          "name": "owner",
          "type": "address"
        },
        {
          "indexed": true,
          "internalType": "address",
          "name": "approved",
          "type": "address"
        },
        {
          "indexed": true,
          "internalType": "uint256",
          "name": "tokenId",
          "type": "uint256"
        }
      ],
      "name": "Approval",
      "type": "event"
    },
    {
      "anonymous": false,
      "inputs": [
        {
          "indexed": true,
          "internalType": "address",
          "name": "owner",
          "type": "address"
        },
        {
          "indexed": true,
          "internalType": "address",
          "name": "operator",
          "type": "address"
        },
        {
          "indexed": false,
          "internalType": "bool",
          "name": "approved",
          "type": "bool"
        }
      ],
      "name": "ApprovalForAll",
      "type": "event"
    },
    {
      "anonymous": false,
      "inputs": [
        {
          "indexed": true,
          "internalType": "address",
          "name": "previousOwner",
          "type": "address"
        },
        {
          "indexed": true,
          "internalType": "address",
          "name": "newOwner",
          "type": "address"
        }
      ],
      "name": "OwnershipTransferred",
      "type": "event"
    },
    {
      "anonymous": false,
      "inputs": [
        {
          "indexed": true,
          "internalType": "address",
          "name": "from",
          "type": "address"
        },
        {
          "indexed": true,
          "internalType": "address",
          "name": "to",
          "type": "address"
        },
        {
          "indexed": true,
          "internalType": "uint256",
          "name": "tokenId",
          "type": "uint256"
        }
      ],
      "name": "Transfer",
      "type": "event"
    },
    {
      "inputs": [
        {
          "internalType": "address",
          "name": "to",
          "type": "address"
        },
        {
          "internalType": "uint256",
          "name": "tokenId",
          "type": "uint256"
        }
      ],
      "name": "approve",
      "outputs": [],
      "stateMutability": "nonpayable",
      "type": "function"
    },
    {
      "inputs": [
        {
          "internalType": "address",
          "name": "owner",
          "type": "address"
        }
      ],
      "name": "balanceOf",
      "outputs": [
        {
          "internalType": "uint256",
          "name": "",
          "type": "uint256"
        }
      ],
      "stateMutability": "view",
      "type": "function"
    },
    {
      "inputs": [
        {
          "internalType": "address",
          "name": "to",
          "type": "address"
        },
        {
          "internalType": "uint256",
          "name": "amount",
          "type": "uint256"
        }
      ],
      "name": "batchMintNFT",
      "outputs": [],
      "stateMutability": "nonpayable",
      "type": "function"
    },
    {
      "inputs": [
        {
          "internalType": "uint256",
          "name": "tokenId",
          "type": "uint256"
        }
      ],
      "name": "exists",
      "outputs": [
        {
          "internalType": "bool",
          "name": "",
          "type": "bool"
        }
      ],
      "stateMutability": "view",
      "type": "function"
    },
    {
      "inputs": [
        {
          "internalType": "uint256",
          "name": "tokenId",
          "type": "uint256"
        }
      ],
      "name": "getApproved",
      "outputs": [
        {
          "internalType": "address",
          "name": "",
          "type": "address"
        }
      ],
      "stateMutability": "view",
      "type": "function"
    },
    {
      "inputs": [],
      "name": "getNextTokenId",
      "outputs": [
        {
          "internalType": "uint256",
          "name": "",
          "type": "uint256"
        }
      ],
      "stateMutability": "view",
      "type": "function"
    },
    {
      "inputs": [
        {
          "internalType": "address",
          "name": "owner",
          "type": "address"
        },
        {
          "internalType": "address",
          "name": "operator",
          "type": "address"
        }
      ],
      "name": "isApprovedForAll",
      "outputs": [
        {
          "internalType": "bool",
          "name": "",
          "type": "bool"
        }
      ],
      "stateMutability": "view",
      "type": "function"
    },
    {
      "inputs": [
        {
          "internalType": "address",
          "name": "to",
          "type": "address"
        }
      ],
      "name": "mintNFT",
      "outputs": [],
      "stateMutability": "nonpayable",
      "type": "function"
    },
    {
      "inputs": [],
      "name": "name",
      "outputs": [
        {
          "internalType": "string",
          "name": "",
          "type": "string"
        }
      ],
      "stateMutability": "view",
      "type": "function"
    },
    {
      "inputs": [],
      "name": "owner",
      "outputs": [
        {
          "internalType": "address",
          "name": "",
          "type": "address"
        }
      ],
      "stateMutability": "view",
      "type": "function"
    },
    {
      "inputs": [
        {
          "internalType": "uint256",
          "name": "tokenId",
          "type": "uint256"
        }
      ],
      "name": "ownerOf",
      "outputs": [
        {
          "internalType": "address",
          "name": "",
          "type": "address"
        }
      ],
      "stateMutability": "view",
      "type": "function"
    },
    {
      "inputs": [],
      "name": "renounceOwnership",
      "outputs": [],
      "stateMutability": "nonpayable",
      "type": "function"
    },
    {
      "inputs": [
        {
          "internalType": "address",
          "name": "from",
          "type": "address"
        },
        {
          "internalType": "address",
          "name": "to",
          "type": "address"
        },
        {
          "internalType": "uint256",
          "name": "tokenId",
          "type": "uint256"
        }
      ],
      "name": "safeTransferFrom",
      "outputs": [],
      "stateMutability": "nonpayable",
      "type": "function"
    },
    {
      "inputs": [
        {
          "internalType": "address",
          "name": "from",
          "type": "address"
        },
        {
          "internalType": "address",
          "name": "to",
          "type": "address"
        },
        {
          "internalType": "uint256",
          "name": "tokenId",
          "type": "uint256"
        },
        {
          "internalType": "bytes",
          "name": "data",
          "type": "bytes"
        }
      ],
      "name": "safeTransferFrom",
      "outputs": [],
      "stateMutability": "nonpayable",
      "type": "function"
    },
    {
      "inputs": [
        {
          "internalType": "address",
          "name": "operator",
          "type": "address"
        },
        {
          "internalType": "bool",
          "name": "approved",
          "type": "bool"
        }
      ],
      "name": "setApprovalForAll",
      "outputs": [],
      "stateMutability": "nonpayable",
      "type": "function"
    },
    {
      "inputs": [
        {
          "internalType": "string",
          "name": "_newBaseURI",
          "type": "string"
        }
      ],
      "name": "setBaseURI",
      "outputs": [],
      "stateMutability": "nonpayable",
      "type": "function"
    },
    {
      "inputs": [
        {
          "internalType": "bytes4",
          "name": "interfaceId",
          "type": "bytes4"
        }
      ],
      "name": "supportsInterface",
      "outputs": [
        {
          "internalType": "bool",
          "name": "",
          "type": "bool"
        }
      ],
      "stateMutability": "view",
      "type": "function"
    },
    {
      "inputs": [],
      "name": "symbol",
      "outputs": [
        {
          "internalType": "string",
          "name": "",
          "type": "string"
        }
      ],
      "stateMutability": "view",
      "type": "function"
    },
    {
      "inputs": [
        {
          "internalType": "uint256",
          "name": "tokenId",
          "type": "uint256"
        }
      ],
      "name": "tokenURI",
      "outputs": [
        {
          "internalType": "string",
          "name": "",
          "type": "string"
        }
      ],
      "stateMutability": "view",
      "type": "function"
    },
    {
      "inputs": [
        {
          "internalType": "address",
          "name": "from",
          "type": "address"
        },
        {
          "internalType": "address",
          "name": "to",
          "type": "address"
        },
        {
          "internalType": "uint256",
          "name": "tokenId",
          "type": "uint256"
        }
      ],
      "name": "transferFrom",
      "outputs": [],
      "stateMutability": "nonpayable",
      "type": "function"
    },
    {
      "inputs": [
        {
          "internalType": "address",
          "name": "newOwner",
          "type": "address"
        }
      ],
      "name": "transferOwnership",
      "outputs": [],
      "stateMutability": "nonpayable",
      "type": "function"
    }
  ],
  "bytecode": "0x6080604052612710600755348015610015575f5ffd5b5060405161180338038061180383398101604081905261003491610191565b3383835f61004283826102a4565b50600161004f82826102a4565b5050506001600160a01b03811661007f57604051631e4fbdf760e01b81525f600482015260240160405180910390fd5b610088816100a3565b506001600855600b61009a82826102a4565b5050505061035e565b600680546001600160a01b038381166001600160a01b0319831681179093556040519116919082907f8be0079c531659141344cd1fd0a4f28419497f9722a3daafe3b4186f6b6457e0905f90a35050565b634e487b7160e01b5f52604160045260245ffd5b5f82601f830112610117575f5ffd5b81516001600160401b03811115610130576101306100f4565b604051601f8201601f19908116603f011681016001600160401b038111828210171561015e5761015e6100f4565b604052818152838201602001851015610175575f5ffd5b8160208501602083015e5f918101602001919091529392505050565b5f5f5f606084860312156101a3575f5ffd5b83516001600160401b038111156101b8575f5ffd5b6101c486828701610108565b602086015190945090506001600160401b038111156101e1575f5ffd5b6101ed86828701610108565b604086015190935090506001600160401b0381111561020a575f5ffd5b61021686828701610108565b9150509250925092565b600181811c9082168061023457607f821691505b60208210810361025257634e487b7160e01b5f52602260045260245ffd5b50919050565b601f82111561029f57805f5260205f20601f840160051c8101602085101561027d5750805b601f840160051c820191505b8181101561029c575f8155600101610289565b50505b505050565b81516001600160401b038111156102bd576102bd6100f4565b6102d1816102cb8454610220565b84610258565b6020601f821160018114610303575f83156102ec5750848201515b5f19600385901b1c1916600184901b17845561029c565b5f84815260208120601f198516915b828110156103325787850151825560209485019460019092019101610312565b508482101561034f57868401515f19600387901b60f8161c191681555b50505050600190811b01905550565b6114988061036b5f395ff3fe608060405234801561000f575f5ffd5b5060043610610132575f3560e01c806370a08231116100b4578063b33ea9ac11610079578063b33ea9ac1461027a578063b88d4fde1461028d578063c87b56dd146102a0578063caa0f92a146102b3578063e985e9c5146102bb578063f2fde38b146102ce575f5ffd5b806370a0823114610225578063715018a6146102465780638da5cb5b1461024e57806395d89b411461025f578063a22cb46514610267575f5ffd5b806342842e0e116100fa57806342842e0e146101c65780634f558e79146101d957806354ba0f27146101ec57806355f804b3146101ff5780636352211e14610212575f5ffd5b806301ffc9a71461013657806306fdde031461015e578063081812fc14610173578063095ea7b31461019e57806323b872dd146101b3575b5f5ffd5b610149610144366004610f99565b6102e1565b60405190151581526020015b60405180910390f35b610166610332565b6040516101559190610fe2565b610186610181366004610ff4565b6103c1565b6040516001600160a01b039091168152602001610155565b6101b16101ac36600461101f565b6103e8565b005b6101b16101c1366004611049565b6103f7565b6101b16101d4366004611049565b610485565b6101496101e7366004610ff4565b6104a4565b6101b16101fa366004611087565b610512565b6101b161020d36600461112d565b61057f565b610186610220366004610ff4565b610593565b610238610233366004611087565b61059d565b604051908152602001610155565b6101b16105e2565b6006546001600160a01b0316610186565b6101666105f5565b6101b1610275366004611172565b610604565b6101b161028836600461101f565b61060f565b6101b161029b3660046111ad565b61069d565b6101666102ae366004610ff4565b6106b5565b600854610238565b6101496102c9366004611228565b6107db565b6101b16102dc366004611087565b610808565b5f6001600160e01b031982166380ac58cd60e01b148061031157506001600160e01b03198216635b5e139f60e01b145b8061032c57506301ffc9a760e01b6001600160e01b03198316145b92915050565b60605f805461034090611254565b80601f016020809104026020016040519081016040528092919081815260200182805461036c90611254565b80156103b75780601f1061038e576101008083540402835291602001916103b7565b820191905f5260205f20905b81548152906001019060200180831161039a57829003601f168201915b5050505050905090565b5f6103cb82610845565b505f828152600460205260409020546001600160a01b031661032c565b6103f382823361087d565b5050565b6001600160a01b03821661042557604051633250574960e11b81525f60048201526024015b60405180910390fd5b5f61043183833361088a565b9050836001600160a01b0316816001600160a01b03161461047f576040516364283d7b60e01b81526001600160a01b038086166004830152602482018490528216604482015260640161041c565b50505050565b61049f83838360405180602001604052805f81525061069d565b505050565b6040516331a9108f60e11b8152600481018290525f903090636352211e90602401602060405180830381865afa9250505080156104fe575060408051601f3d908101601f191682019092526104fb9181019061128c565b60015b61050957505f919050565b50600192915050565b6007546008541061055a5760405162461bcd60e51b8152602060048201526012602482015271746f6b656e206f7574206f662072616e676560701b604482015260640161041c565b600854610567828261097c565b60088054905f610576836112a7565b91905055505050565b610587610995565b600b6103f3828261130f565b5f61032c82610845565b5f6001600160a01b0382166105c7576040516322718ad960e21b81525f600482015260240161041c565b506001600160a01b03165f9081526003602052604090205490565b6105ea610995565b6105f35f6109c2565b565b60606001805461034090611254565b6103f3338383610a13565b610617610995565b5f81118015610627575060648111155b61066a5760405162461bcd60e51b81526020600482015260146024820152730416d6f756e74206d75737420626520312d3130360641b604482015260640161041c565b5f5b8181101561049f57600880549081905f610685836112a7565b9190505550610694848261097c565b5060010161066c565b6106a88484846103f7565b61047f3385858585610ab1565b60606106c0826104a4565b6107015760405162461bcd60e51b815260206004820152601260248201527113919508191bd95cc81b9bdd08195e1a5cdd60721b604482015260640161041c565b5f600b805461070f90611254565b80601f016020809104026020016040519081016040528092919081815260200182805461073b90611254565b80156107865780601f1061075d57610100808354040283529160200191610786565b820191905f5260205f20905b81548152906001019060200180831161076957829003601f168201915b505050505090505f8151116107a95760405180602001604052805f8152506107d4565b806107b384610bd9565b6040516020016107c49291906113e1565b6040516020818303038152906040525b9392505050565b6001600160a01b039182165f90815260056020908152604080832093909416825291909152205460ff1690565b610810610995565b6001600160a01b03811661083957604051631e4fbdf760e01b81525f600482015260240161041c565b610842816109c2565b50565b5f818152600260205260408120546001600160a01b03168061032c57604051637e27328960e01b81526004810184905260240161041c565b61049f8383836001610c69565b5f828152600260205260408120546001600160a01b03908116908316156108b6576108b6818486610d6d565b6001600160a01b038116156108f0576108d15f855f5f610c69565b6001600160a01b0381165f90815260036020526040902080545f190190555b6001600160a01b0385161561091e576001600160a01b0385165f908152600360205260409020805460010190555b5f8481526002602052604080822080546001600160a01b0319166001600160a01b0389811691821790925591518793918516917fddf252ad1be2c89b69c2b068fc378daa952ba7f163c4a11628f55a4df523b3ef91a4949350505050565b6103f3828260405180602001604052805f815250610dd1565b6006546001600160a01b031633146105f35760405163118cdaa760e01b815233600482015260240161041c565b600680546001600160a01b038381166001600160a01b0319831681179093556040519116919082907f8be0079c531659141344cd1fd0a4f28419497f9722a3daafe3b4186f6b6457e0905f90a35050565b6001600160a01b038216610a4557604051630b61174360e31b81526001600160a01b038316600482015260240161041c565b6001600160a01b038381165f81815260056020908152604080832094871680845294825291829020805460ff191686151590811790915591519182527f17307eab39ab6107e8899845ad3d59bd9653f200f220920489ca2b5937696c31910160405180910390a3505050565b6001600160a01b0383163b15610bd257604051630a85bd0160e11b81526001600160a01b0384169063150b7a0290610af390889088908790879060040161140b565b6020604051808303815f875af1925050508015610b2d575060408051601f3d908101601f19168201909252610b2a91810190611447565b60015b610b94573d808015610b5a576040519150601f19603f3d011682016040523d82523d5f602084013e610b5f565b606091505b5080515f03610b8c57604051633250574960e11b81526001600160a01b038516600482015260240161041c565b805160208201fd5b6001600160e01b03198116630a85bd0160e11b14610bd057604051633250574960e11b81526001600160a01b038516600482015260240161041c565b505b5050505050565b60605f610be583610de8565b60010190505f8167ffffffffffffffff811115610c0457610c046110a2565b6040519080825280601f01601f191660200182016040528015610c2e576020820181803683370190505b5090508181016020015b5f19016f181899199a1a9b1b9c1cb0b131b232b360811b600a86061a8153600a8504945084610c3857509392505050565b8080610c7d57506001600160a01b03821615155b15610d3e575f610c8c84610845565b90506001600160a01b03831615801590610cb85750826001600160a01b0316816001600160a01b031614155b8015610ccb5750610cc981846107db565b155b15610cf45760405163a9fbf51f60e01b81526001600160a01b038416600482015260240161041c565b8115610d3c5783856001600160a01b0316826001600160a01b03167f8c5be1e5ebec7d5bd14f71427d1e84f3dd0314c0f7b2291e5b200ac8c7c3b92560405160405180910390a45b505b50505f90815260046020526040902080546001600160a01b0319166001600160a01b0392909216919091179055565b610d78838383610ebf565b61049f576001600160a01b038316610da657604051637e27328960e01b81526004810182905260240161041c565b60405163177e802f60e01b81526001600160a01b03831660048201526024810182905260440161041c565b610ddb8383610f23565b61049f335f858585610ab1565b5f8072184f03e93ff9f4daa797ed6e38ed64bf6a1f0160401b8310610e265772184f03e93ff9f4daa797ed6e38ed64bf6a1f0160401b830492506040015b6d04ee2d6d415b85acef81000000008310610e52576d04ee2d6d415b85acef8100000000830492506020015b662386f26fc100008310610e7057662386f26fc10000830492506010015b6305f5e1008310610e88576305f5e100830492506008015b6127108310610e9c57612710830492506004015b60648310610eae576064830492506002015b600a831061032c5760010192915050565b5f6001600160a01b03831615801590610f1b5750826001600160a01b0316846001600160a01b03161480610ef85750610ef884846107db565b80610f1b57505f828152600460205260409020546001600160a01b038481169116145b949350505050565b6001600160a01b038216610f4c57604051633250574960e11b81525f600482015260240161041c565b5f610f5883835f61088a565b90506001600160a01b0381161561049f576040516339e3563760e11b81525f600482015260240161041c565b6001600160e01b031981168114610842575f5ffd5b5f60208284031215610fa9575f5ffd5b81356107d481610f84565b5f81518084528060208401602086015e5f602082860101526020601f19601f83011685010191505092915050565b602081525f6107d46020830184610fb4565b5f60208284031215611004575f5ffd5b5035919050565b6001600160a01b0381168114610842575f5ffd5b5f5f60408385031215611030575f5ffd5b823561103b8161100b565b946020939093013593505050565b5f5f5f6060848603121561105b575f5ffd5b83356110668161100b565b925060208401356110768161100b565b929592945050506040919091013590565b5f60208284031215611097575f5ffd5b81356107d48161100b565b634e487b7160e01b5f52604160045260245ffd5b5f5f67ffffffffffffffff8411156110d0576110d06110a2565b50604051601f19601f85018116603f0116810181811067ffffffffffffffff821117156110ff576110ff6110a2565b604052838152905080828401851015611116575f5ffd5b838360208301375f60208583010152509392505050565b5f6020828403121561113d575f5ffd5b813567ffffffffffffffff811115611153575f5ffd5b8201601f81018413611163575f5ffd5b610f1b848235602084016110b6565b5f5f60408385031215611183575f5ffd5b823561118e8161100b565b9150602083013580151581146111a2575f5ffd5b809150509250929050565b5f5f5f5f608085870312156111c0575f5ffd5b84356111cb8161100b565b935060208501356111db8161100b565b925060408501359150606085013567ffffffffffffffff8111156111fd575f5ffd5b8501601f8101871361120d575f5ffd5b61121c878235602084016110b6565b91505092959194509250565b5f5f60408385031215611239575f5ffd5b82356112448161100b565b915060208301356111a28161100b565b600181811c9082168061126857607f821691505b60208210810361128657634e487b7160e01b5f52602260045260245ffd5b50919050565b5f6020828403121561129c575f5ffd5b81516107d48161100b565b5f600182016112c457634e487b7160e01b5f52601160045260245ffd5b5060010190565b601f82111561049f57805f5260205f20601f840160051c810160208510156112f05750805b601f840160051c820191505b81811015610bd2575f81556001016112fc565b815167ffffffffffffffff811115611329576113296110a2565b61133d816113378454611254565b846112cb565b6020601f82116001811461136f575f83156113585750848201515b5f19600385901b1c1916600184901b178455610bd2565b5f84815260208120601f198516915b8281101561139e578785015182556020948501946001909201910161137e565b50848210156113bb57868401515f19600387901b60f8161c191681555b50505050600190811b01905550565b5f81518060208401855e5f93019283525090919050565b5f6113f56113ef83866113ca565b846113ca565b64173539b7b760d91b8152600501949350505050565b6001600160a01b03858116825284166020820152604081018390526080606082018190525f9061143d90830184610fb4565b9695505050505050565b5f60208284031215611457575f5ffd5b81516107d481610f8456fea26469706673582212202179569067c39585258ae1345df611571633d0164d34a8b2b525e6d95767387264736f6c634300081c0033",
  "linkReferences": {},
  "deployedLinkReferences": {},
  "immutableReferences": {},
  "inputSourceName": "project/contracts/NFTContract.sol",
  "buildInfoId": "solc-0_8_28-f42ed9ba07cd9bd3653247a02b5f01c90dad60c4"
}